{
  "contractName": "CryptoPool",
  "abi": [
    {
      "inputs": [],
      "stateMutability": "nonpayable",
      "type": "constructor"
    },
    {
      "anonymous": false,
      "inputs": [
        {
          "indexed": true,
          "internalType": "address",
          "name": "player",
          "type": "address"
        },
        {
          "indexed": true,
          "internalType": "uint256",
          "name": "amount",
          "type": "uint256"
        }
      ],
      "name": "ParticipantLog",
      "type": "event"
    },
    {
      "stateMutability": "nonpayable",
      "type": "fallback"
    },
    {
      "inputs": [],
      "name": "contractOwner",
      "outputs": [
        {
          "internalType": "address",
          "name": "",
          "type": "address"
        }
      ],
      "stateMutability": "view",
      "type": "function",
      "constant": true
    },
    {
      "inputs": [
        {
          "internalType": "uint256",
          "name": "",
          "type": "uint256"
        }
      ],
      "name": "participants",
      "outputs": [
        {
          "internalType": "address payable",
          "name": "",
          "type": "address"
        }
      ],
      "stateMutability": "view",
      "type": "function",
      "constant": true
    },
    {
      "inputs": [],
      "name": "poolState",
      "outputs": [
        {
          "internalType": "enum CryptoPool.LotteryState",
          "name": "",
          "type": "uint8"
        }
      ],
      "stateMutability": "view",
      "type": "function",
      "constant": true
    },
    {
      "stateMutability": "payable",
      "type": "receive",
      "payable": true
    },
    {
      "inputs": [
        {
          "internalType": "address",
          "name": "newOnwer",
          "type": "address"
        }
      ],
      "name": "changeContractOwner",
      "outputs": [],
      "stateMutability": "nonpayable",
      "type": "function"
    },
    {
      "inputs": [],
      "name": "closedPool",
      "outputs": [],
      "stateMutability": "nonpayable",
      "type": "function"
    },
    {
      "inputs": [],
      "name": "OpenPool",
      "outputs": [],
      "stateMutability": "nonpayable",
      "type": "function"
    },
    {
      "inputs": [],
      "name": "getContractBalance",
      "outputs": [
        {
          "internalType": "uint256",
          "name": "",
          "type": "uint256"
        }
      ],
      "stateMutability": "view",
      "type": "function",
      "constant": true
    },
    {
      "inputs": [],
      "name": "getAllCurrentPlayer",
      "outputs": [
        {
          "internalType": "address payable[]",
          "name": "",
          "type": "address[]"
        }
      ],
      "stateMutability": "view",
      "type": "function",
      "constant": true
    },
    {
      "inputs": [],
      "name": "pickWinner",
      "outputs": [
        {
          "internalType": "address",
          "name": "winnderAddress",
          "type": "address"
        }
      ],
      "stateMutability": "nonpayable",
      "type": "function"
    }
  ],
  "bytecode": "0x608060405234801561001057600080fd5b50336000806101000a81548173ffffffffffffffffffffffffffffffffffffffff021916908373ffffffffffffffffffffffffffffffffffffffff1602179055506000600260006101000a81548160ff0219169083600281111561007757610076610081565b5b02179055506100b0565b7f4e487b7100000000000000000000000000000000000000000000000000000000600052602160045260246000fd5b6110f3806100bf6000396000f3fe60806040526004361061008a5760003560e01c8063641ad8a911610059578063641ad8a9146103035780636f9fb98a1461032e57806391000ee314610359578063ce606ee014610370578063e77e480d1461039b57610238565b80631940b8921461024757806335c1d349146102725780633ead67b5146102af5780635d495aea146102d857610238565b3661023857662386f26fc1000034146040518060600160405280602d815260200161106e602d9139906100f3576040517f08c379a00000000000000000000000000000000000000000000000000000000081526004016100ea9190610d6c565b60405180910390fd5b5060008054906101000a900473ffffffffffffffffffffffffffffffffffffffff1673ffffffffffffffffffffffffffffffffffffffff163373ffffffffffffffffffffffffffffffffffffffff16141560405180606001604052806031815260200161103d603191399061019e576040517f08c379a00000000000000000000000000000000000000000000000000000000081526004016101959190610d6c565b60405180910390fd5b50600360003373ffffffffffffffffffffffffffffffffffffffff1673ffffffffffffffffffffffffffffffffffffffff16815260200190815260200160002060009054906101000a900460ff161561022c576040517f08c379a000000000000000000000000000000000000000000000000000000000815260040161022390610d8e565b60405180910390fd5b61023633346103b2565b005b34801561024457600080fd5b50005b34801561025357600080fd5b5061025c61049d565b6040516102699190610d2f565b60405180910390f35b34801561027e57600080fd5b5061029960048036038101906102949190610b5b565b61052b565b6040516102a69190610d14565b60405180910390f35b3480156102bb57600080fd5b506102d660048036038101906102d19190610b2e565b61056a565b005b3480156102e457600080fd5b506102ed610657565b6040516102fa9190610cf9565b60405180910390f35b34801561030f57600080fd5b50610318610831565b6040516103259190610d51565b60405180910390f35b34801561033a57600080fd5b50610343610844565b6040516103509190610dae565b60405180910390f35b34801561036557600080fd5b5061036e610851565b005b34801561037c57600080fd5b50610385610928565b6040516103929190610cf9565b60405180910390f35b3480156103a757600080fd5b506103b061094c565b005b600060028111156103c6576103c5610f2e565b5b600260009054906101000a900460ff1660028111156103e8576103e7610f2e565b5b146103f257600080fd5b6001829080600181540180825580915050600190039060005260206000200160009091909190916101000a81548173ffffffffffffffffffffffffffffffffffffffff021916908373ffffffffffffffffffffffffffffffffffffffff160217905550808273ffffffffffffffffffffffffffffffffffffffff167fe4c01a80a213317da8c9ed6c9b898b119ffda0a5f2f45f97837f977a7fefef0460405160405180910390a35050565b6060600180548060200260200160405190810160405280929190818152602001828054801561052157602002820191906000526020600020905b8160009054906101000a900473ffffffffffffffffffffffffffffffffffffffff1673ffffffffffffffffffffffffffffffffffffffff16815260200190600101908083116104d7575b5050505050905090565b6001818154811061053b57600080fd5b906000526020600020016000915054906101000a900473ffffffffffffffffffffffffffffffffffffffff1681565b60008054906101000a900473ffffffffffffffffffffffffffffffffffffffff1673ffffffffffffffffffffffffffffffffffffffff163373ffffffffffffffffffffffffffffffffffffffff161460405180606001604052806023815260200161109b6023913990610613576040517f08c379a000000000000000000000000000000000000000000000000000000000815260040161060a9190610d6c565b60405180910390fd5b50806000806101000a81548173ffffffffffffffffffffffffffffffffffffffff021916908373ffffffffffffffffffffffffffffffffffffffff16021790555050565b60008060009054906101000a900473ffffffffffffffffffffffffffffffffffffffff1673ffffffffffffffffffffffffffffffffffffffff163373ffffffffffffffffffffffffffffffffffffffff161460405180606001604052806023815260200161109b6023913990610703576040517f08c379a00000000000000000000000000000000000000000000000000000000081526004016106fa9190610d6c565b60405180910390fd5b506003600180549050101561071757600080fd5b6000610721610a23565b9050600080600180549050836107379190610ece565b90506001818154811061074d5761074c610f5d565b5b9060005260206000200160009054906101000a900473ffffffffffffffffffffffffffffffffffffffff1691508173ffffffffffffffffffffffffffffffffffffffff166108fc61079c610844565b9081150290604051600060405180830381858888f193505050501580156107c7573d6000803e3d6000fd5b50600067ffffffffffffffff8111156107e3576107e2610f8c565b5b6040519080825280602002602001820160405280156108115781602001602082028036833780820191505090505b5060019080519060200190610827929190610a5d565b5081935050505090565b600260009054906101000a900460ff1681565b6000804790508091505090565b60008054906101000a900473ffffffffffffffffffffffffffffffffffffffff1673ffffffffffffffffffffffffffffffffffffffff163373ffffffffffffffffffffffffffffffffffffffff161460405180606001604052806023815260200161109b60239139906108fa576040517f08c379a00000000000000000000000000000000000000000000000000000000081526004016108f19190610d6c565b60405180910390fd5b506000600260006101000a81548160ff0219169083600281111561092157610920610f2e565b5b0217905550565b60008054906101000a900473ffffffffffffffffffffffffffffffffffffffff1681565b60008054906101000a900473ffffffffffffffffffffffffffffffffffffffff1673ffffffffffffffffffffffffffffffffffffffff163373ffffffffffffffffffffffffffffffffffffffff161460405180606001604052806023815260200161109b60239139906109f5576040517f08c379a00000000000000000000000000000000000000000000000000000000081526004016109ec9190610d6c565b60405180910390fd5b506001600260006101000a81548160ff02191690836002811115610a1c57610a1b610f2e565b5b0217905550565b60004442600180549050604051602001610a3f93929190610cbc565b6040516020818303038152906040528051906020012060001c905090565b828054828255906000526020600020908101928215610ad6579160200282015b82811115610ad55782518260006101000a81548173ffffffffffffffffffffffffffffffffffffffff021916908373ffffffffffffffffffffffffffffffffffffffff16021790555091602001919060010190610a7d565b5b509050610ae39190610ae7565b5090565b5b80821115610b00576000816000905550600101610ae8565b5090565b600081359050610b138161100e565b92915050565b600081359050610b2881611025565b92915050565b600060208284031215610b4457610b43610fbb565b5b6000610b5284828501610b04565b91505092915050565b600060208284031215610b7157610b70610fbb565b5b6000610b7f84828501610b19565b91505092915050565b6000610b948383610ba0565b60208301905092915050565b610ba981610e30565b82525050565b610bb881610e30565b82525050565b610bc781610e1e565b82525050565b6000610bd882610dd9565b610be28185610dfc565b9350610bed83610dc9565b8060005b83811015610c1e578151610c058882610b88565b9750610c1083610def565b925050600181019050610bf1565b5085935050505092915050565b610c3481610e7f565b82525050565b6000610c4582610de4565b610c4f8185610e0d565b9350610c5f818560208601610e91565b610c6881610fc0565b840191505092915050565b6000610c80601283610e0d565b9150610c8b82610fd1565b602082019050919050565b610c9f81610e75565b82525050565b610cb6610cb182610e75565b610ec4565b82525050565b6000610cc88286610ca5565b602082019150610cd88285610ca5565b602082019150610ce88284610ca5565b602082019150819050949350505050565b6000602082019050610d0e6000830184610bbe565b92915050565b6000602082019050610d296000830184610baf565b92915050565b60006020820190508181036000830152610d498184610bcd565b905092915050565b6000602082019050610d666000830184610c2b565b92915050565b60006020820190508181036000830152610d868184610c3a565b905092915050565b60006020820190508181036000830152610da781610c73565b9050919050565b6000602082019050610dc36000830184610c96565b92915050565b6000819050602082019050919050565b600081519050919050565b600081519050919050565b6000602082019050919050565b600082825260208201905092915050565b600082825260208201905092915050565b6000610e2982610e55565b9050919050565b6000610e3b82610e55565b9050919050565b6000819050610e5082610ffa565b919050565b600073ffffffffffffffffffffffffffffffffffffffff82169050919050565b6000819050919050565b6000610e8a82610e42565b9050919050565b60005b83811015610eaf578082015181840152602081019050610e94565b83811115610ebe576000848401525b50505050565b6000819050919050565b6000610ed982610e75565b9150610ee483610e75565b925082610ef457610ef3610eff565b5b828206905092915050565b7f4e487b7100000000000000000000000000000000000000000000000000000000600052601260045260246000fd5b7f4e487b7100000000000000000000000000000000000000000000000000000000600052602160045260246000fd5b7f4e487b7100000000000000000000000000000000000000000000000000000000600052603260045260246000fd5b7f4e487b7100000000000000000000000000000000000000000000000000000000600052604160045260246000fd5b600080fd5b6000601f19601f8301169050919050565b7f48617665206f6e6c79206f6e6520736c6f740000000000000000000000000000600082015250565b6003811061100b5761100a610f2e565b5b50565b61101781610e1e565b811461102257600080fd5b50565b61102e81610e75565b811461103957600080fd5b5056fe436f6e7472616374204f6e7765722043616e206e6f7420706172746963697061746520696e207468697320616374696f6e416d6f756e7420746f207374616b652073686f756c6420626520657175616c20746f20302e30312045746865725265737472696374656420746f204f6e776572206f662074686520636f6e7472616374a264697066735822122011f9fa532ed2a683e3fc1bf1bff3e097f430c5bd593375c737f67fc70876c4b964736f6c63430008050033",
  "immutableReferences": {},
  "source": "//SPDX-License-Identifier: GL-3.0\r\n\r\npragma solidity >=0.5.0 <=0.9.0;\r\n// pragma experimental ABIEncoderV2;\r\n\r\n\r\ncontract CryptoPool {\r\n\r\n  string internal constant ADMIN_PERMISSION = \"Restricted to Onwer of the contract\";\r\n  string internal constant INSUFFICIENT_FUNDS = \"Amount to stake should be equal to 0.01 Ether\";\r\n  string internal constant CONTRACT_OWNER_WARNING = \"Contract Onwer Can not participate in this action\";\r\n\r\n  address public contractOwner;\r\n  \r\n  address payable[] public participants;\r\n\r\n  enum LotteryState {\r\n      Open,\r\n      Closed,\r\n      Cancel\r\n  }\r\n  \r\n  LotteryState public poolState;\r\n  \r\n  mapping (address => bool) havePlayed;\r\n \r\n  \r\n  constructor(){\r\n    contractOwner = msg.sender;\r\n    poolState = LotteryState.Open;\r\n  }\r\n\r\n\r\n  event ParticipantLog(\r\n    address indexed player,\r\n    uint indexed amount\r\n  );\r\n \r\n\r\n\r\n  modifier AdminAccess {\r\n    require(msg.sender == contractOwner, ADMIN_PERMISSION);\r\n    _;\r\n  }\r\n\r\n  \r\n  modifier PoolOpen {\r\n      require(poolState == LotteryState.Open);\r\n      _;\r\n  }\r\n  \r\n  modifier PoolCancel {\r\n      require(poolState == LotteryState.Cancel);\r\n      _;\r\n  }\r\n  \r\n  modifier PoolClosed {\r\n      require(poolState == LotteryState.Closed);\r\n      _;\r\n  }\r\n\r\n  receive() external payable {\r\n    require(msg.value == 0.01 ether, INSUFFICIENT_FUNDS);\r\n    require(msg.sender != contractOwner, CONTRACT_OWNER_WARNING);\r\n    require(!havePlayed[msg.sender],'Have only one slot');\r\n    addPlayerToList(msg.sender, msg.value);\r\n  }\r\n\r\n   fallback() external {\r\n\r\n   }\r\n   \r\n   \r\n   function addPlayerToList(address _address,uint _amount) PoolOpen private {\r\n     participants.push(payable(_address));\r\n    //  havePlayed[_address] = true;\r\n     emit ParticipantLog(_address, _amount);\r\n   }\r\n   \r\n   // To be Rafactored Using ChainLink VRF..\r\n   // Curerent Random Number is basic and to be used for demonstration\r\n\r\n   function generateRandomId() private view returns(uint){\r\n       return uint(keccak256(abi.encodePacked(block.difficulty, block.timestamp, participants.length)));\r\n\r\n   }\r\n   \r\n   function changeContractOwner(address newOnwer) public AdminAccess {\r\n       contractOwner = newOnwer;\r\n   }\r\n   \r\n   \r\n   function closedPool() public AdminAccess {\r\n       poolState = LotteryState.Closed;\r\n   }\r\n   \r\n   function OpenPool() public AdminAccess {\r\n       poolState = LotteryState.Open;\r\n   }\r\n   \r\n\r\n  function getContractBalance()public view  returns (uint)  {\r\n    uint  balance = address(this).balance;\r\n    return balance;\r\n  }\r\n  \r\n\r\n  function getAllCurrentPlayer() public view returns(address payable[] memory){\r\n    return participants;\r\n  }\r\n\r\n\r\n  function pickWinner() public  AdminAccess returns(address winnderAddress) {\r\n      require(participants.length >=3);\r\n      \r\n      uint randomNumberResult = generateRandomId();\r\n      \r\n      address payable winner;\r\n      \r\n      uint index = randomNumberResult % participants.length;\r\n      winner =  participants[index];\r\n      winner.transfer(getContractBalance());\r\n      participants = new address payable[](0);\r\n\r\n      return winner;\r\n\r\n  }\r\n\r\n\r\n}",
  "sourcePath": "C:/Users/cmc/Desktop/Projects/blockchain/lottery-pool/contracts/CryptoPool.sol",
  "compiler": {
    "name": "solc",
    "version": "0.8.5+commit.a4f2e591.Emscripten.clang"
  },
  "schemaVersion": "3.4.0",
  "updatedAt": "2021-06-17T01:47:12.392Z",
  "networkType": "ethereum",
  "devdoc": {
    "kind": "dev",
    "methods": {},
    "version": 1
  },
  "userdoc": {
    "kind": "user",
    "methods": {},
    "version": 1
  }
}